:1000000030C04AC06BC148C047C046C045C044C0AC
:1000100043C042C041C040C03FC03EC03DC00902D5
:1000200012000101008032090400000000000000FD
:1000300012011001FF000008C016DC0500010102DA
:1000400000010A03540065006D00700012036F0088
:1000500062006400650076002E00610074000403F5
:10006000090411241FBECFE5D2E0DEBFCDBF10E0F2
:10007000A0E6B0E0E0E6F6E002C005900D92A237FF
:10008000B107D9F720E0A2E7B0E001C01D92AF3977
:10009000B207E1F7C7D2E2C2B3CFCF93DF9360914B
:1000A0008500635067FD9FC080918200CCE0D0E066
:1000B000C81BD109C757DF4F809181008D3209F0ED
:1000C00081C0683009F08DC083EC809375008AE5AB
:1000D00080936100109272008881807631F0CE01A9
:1000E0004ED28F3F09F45DC063C08A8110927E00BA
:1000F0009981911106C010927F002EE730E082E0D6
:100100004BC0953019F48093860038C0963081F545
:100110009B81913019F480E390E004C0923041F467
:100120008EE190E0909384008093830082E11CC074
:100130009330C9F4811108C08EE590E0909384005B
:100140008093830084E010C0813019F48CE490E047
:10015000E9CF823041F482E490E090938400809370
:1001600083008AE001C080E090E49093720020C098
:10017000983079F0993031F4809388002EE730E0A0
:1001800080E00AC081E09A3009F080E02EE730E09C
:1001900003C028E830E081E030938400209383009E
:1001A00007C0988197FD8E8190E89093720007C0F8
:1001B0009F81911104C09E81981708F4892F809324
:1001C00060000FC08091720087FF0BC0CE010DD27E
:1001D0008F3F21F48EE18093610003C08111109262
:1001E0006000109285008091610084FF4CC0809176
:1001F00060008F3F09F447C0C82F893008F0C8E07D
:100200008C1B809360008091750098E8892780930B
:100210007500CC2361F1809183009091840020913E
:10022000720026FF12C0A6E7B0E025E730E0209577
:100230003095280F391F4C2F4A0FF901EA0FFB1F89
:10024000E491ED934A13F9CF09C0E6E7F0E0DC0151
:100250002C2F2E0F3D9131932E13FCCF01962FEFB3
:100260002C0F820F911D90938400809383006C2F3C
:1002700086E790E02FD0CC5FCC3019F08FEF8093E1
:100280006000C093610084E196B3987131F48150AD
:10029000D9F71092860010928000DF91CF910895D7
:1002A000AC9A8BB780628BBF0895A82FB92F80E0DE
:1002B00090E041E050EA609530E009C02D9182273E
:1002C0009795879510F084279527305EC8F36F5F68
:1002D000A8F30895EADF8D939D930895CF93CFB748
:1002E000CF93C395B39BE9F7B39B0BC0B39B09C0F6
:1002F000B39B07C0B39B05C0B39B03C0B39B01C0B6
:10030000D3C00F92DF93C0918200DD27C757DF4F24
:10031000012EB39B03C0DF910F90E6CF2F930F9375
:100320001F934F932FEF4F6F06B303FB20F95F939B
:100330003F9350E03BE065C016B30126502953FDC2
:10034000C89556B3012703FB25F92F7306B3B1F007
:100350005027102713FB26F906B22230F0F000C018
:1003600016B3012703FB27F90126502906B22430D2
:10037000E8F54F77206816B30000F6CF50274F7D81
:10038000206206B2102F000000C006B300265029DC
:10039000102713FB26F906B2E2CF4F7B06B3206489
:1003A00000C0DACF01265029187106B269F14E7FDC
:1003B0002160012F16B328C0002650294D7F06B2B8
:1003C0002260102F29C0012650294B7F06B22460DD
:1003D000012F2DC016B301265029477F2860000049
:1003E00006B22EC04F7E06B3206130C0422706B34E
:1003F000499300265029102706B24FEF13FB20F92E
:10040000297F16B379F2187159F10126502906B2E5
:10041000012703FB21F9237F06B371F2002650293F
:100420003150D0F006B2102713FB22F9277E16B305
:1004300051F201265029012703FB06B223F92F7C34
:1004400049F2000006B3102713FB24F900265029B7
:1004500006B22F7939F270CF10E21ABF002717C009
:100460003B503195C31BD04010E21ABF0881033CBA
:10047000F9F00B34E9F0209180001981110F12136B
:10048000EDCF093651F10D3211F0013E39F70093ED
:1004900087003F915F914F911F910F912F91DF91B5
:1004A0000F90CAB7C5FD1DCFCF91CFBFCF91189583
:1004B00020918700222369F310918500112321F5F3
:1004C000343022F130938500209381001091820016
:1004D0003BE0311B3093820019C000918500013050
:1004E0009CF40AE53091610034FD11C00093610075
:1004F000C5E7D0E010C0052710E000C021C00527E7
:1005000010E0C89508BB14C03AE501C032ED032ED7
:10051000C0E0D0E032E017B31861C39A08B317BB4C
:1005200058E120E84FEF20FF052708BB27951795D6
:100530001C3F28F700004552B0F720FF05272795FC
:1005400008BB17951C3FB8F629913A9561F7077ECD
:1005500010918600110F08BBC250D04011F01093CB
:10056000800010E21ABF086017B3177E402F477E45
:1005700054E05A95F1F708BB17BB48BB8ACFFC0182
:100580008181823071F030F4882349F0813049F55F
:10059000C09A27C0833069F08430C1F022C0C0986F
:1005A000089582E690E0909384008093830080E138
:1005B0000895828180936900838180936A00848199
:1005C00080936B00858180936C000BC08681809343
:1005D000730010927400813130F080E180937300D9
:1005E00002C080E008958FEF089520917300382FA6
:1005F000FC01A0917400A21738F0A093740081E070
:10060000A21779F080E0089591E09A0F8E2F831B56
:10061000861798F78191B0E0AE59BF4F8C93A92F00
:10062000EACF089581E087BB2EE088E190E00FB625
:10063000F894A89581BD0FBE21BD32DEBB9A8AEF2A
:10064000A895E9E3F0E23197F1F700C0000081508E
:10065000B9F7BB987894A89520DDFDCFF894FFCF2B
:10066000FF5A48656C6C6F2C2055534221000000E6
:02067000000088
:00000001FF
